{
  "contractName": "DaiToken",
  "abi": [
    {
      "inputs": [],
      "stateMutability": "nonpayable",
      "type": "constructor"
    },
    {
      "anonymous": false,
      "inputs": [
        {
          "indexed": true,
          "internalType": "address",
          "name": "_owner",
          "type": "address"
        },
        {
          "indexed": true,
          "internalType": "address",
          "name": "_spender",
          "type": "address"
        },
        {
          "indexed": false,
          "internalType": "uint256",
          "name": "_value",
          "type": "uint256"
        }
      ],
      "name": "Approval",
      "type": "event"
    },
    {
      "anonymous": false,
      "inputs": [
        {
          "indexed": true,
          "internalType": "address",
          "name": "_from",
          "type": "address"
        },
        {
          "indexed": true,
          "internalType": "address",
          "name": "_to",
          "type": "address"
        },
        {
          "indexed": false,
          "internalType": "uint256",
          "name": "_value",
          "type": "uint256"
        }
      ],
      "name": "Transfer",
      "type": "event"
    },
    {
      "inputs": [
        {
          "internalType": "address",
          "name": "",
          "type": "address"
        },
        {
          "internalType": "address",
          "name": "",
          "type": "address"
        }
      ],
      "name": "allowance",
      "outputs": [
        {
          "internalType": "uint256",
          "name": "",
          "type": "uint256"
        }
      ],
      "stateMutability": "view",
      "type": "function",
      "constant": true
    },
    {
      "inputs": [
        {
          "internalType": "address",
          "name": "",
          "type": "address"
        }
      ],
      "name": "balanceOf",
      "outputs": [
        {
          "internalType": "uint256",
          "name": "",
          "type": "uint256"
        }
      ],
      "stateMutability": "view",
      "type": "function",
      "constant": true
    },
    {
      "inputs": [
        {
          "internalType": "address",
          "name": "",
          "type": "address"
        }
      ],
      "name": "claimedAccounts",
      "outputs": [
        {
          "internalType": "uint256",
          "name": "",
          "type": "uint256"
        }
      ],
      "stateMutability": "view",
      "type": "function",
      "constant": true
    },
    {
      "inputs": [],
      "name": "decimals",
      "outputs": [
        {
          "internalType": "uint8",
          "name": "",
          "type": "uint8"
        }
      ],
      "stateMutability": "view",
      "type": "function",
      "constant": true
    },
    {
      "inputs": [],
      "name": "name",
      "outputs": [
        {
          "internalType": "string",
          "name": "",
          "type": "string"
        }
      ],
      "stateMutability": "view",
      "type": "function",
      "constant": true
    },
    {
      "inputs": [],
      "name": "owner",
      "outputs": [
        {
          "internalType": "address",
          "name": "",
          "type": "address"
        }
      ],
      "stateMutability": "view",
      "type": "function",
      "constant": true
    },
    {
      "inputs": [],
      "name": "symbol",
      "outputs": [
        {
          "internalType": "string",
          "name": "",
          "type": "string"
        }
      ],
      "stateMutability": "view",
      "type": "function",
      "constant": true
    },
    {
      "inputs": [],
      "name": "totalSupply",
      "outputs": [
        {
          "internalType": "uint256",
          "name": "",
          "type": "uint256"
        }
      ],
      "stateMutability": "view",
      "type": "function",
      "constant": true
    },
    {
      "inputs": [
        {
          "internalType": "address",
          "name": "_to",
          "type": "address"
        },
        {
          "internalType": "uint256",
          "name": "_value",
          "type": "uint256"
        }
      ],
      "name": "transfer",
      "outputs": [
        {
          "internalType": "bool",
          "name": "success",
          "type": "bool"
        }
      ],
      "stateMutability": "nonpayable",
      "type": "function"
    },
    {
      "inputs": [
        {
          "internalType": "address",
          "name": "_spender",
          "type": "address"
        },
        {
          "internalType": "uint256",
          "name": "_value",
          "type": "uint256"
        }
      ],
      "name": "approve",
      "outputs": [
        {
          "internalType": "bool",
          "name": "success",
          "type": "bool"
        }
      ],
      "stateMutability": "nonpayable",
      "type": "function"
    },
    {
      "inputs": [
        {
          "internalType": "address",
          "name": "_from",
          "type": "address"
        },
        {
          "internalType": "address",
          "name": "_to",
          "type": "address"
        },
        {
          "internalType": "uint256",
          "name": "_value",
          "type": "uint256"
        }
      ],
      "name": "transferFrom",
      "outputs": [
        {
          "internalType": "bool",
          "name": "success",
          "type": "bool"
        }
      ],
      "stateMutability": "nonpayable",
      "type": "function"
    },
    {
      "inputs": [],
      "name": "claimDaiTokens",
      "outputs": [
        {
          "internalType": "bool",
          "name": "success",
          "type": "bool"
        }
      ],
      "stateMutability": "nonpayable",
      "type": "function"
    }
  ],
  "bytecode": "0x60c0604052600e60808190526d26b7b1b5902220a4902a37b5b2b760911b60a090815261002f91600091906100a9565b50604080518082019091526004808252636d44414960e01b602090920191825261005b916001916100a9565b5064e8d4a510006002556003805460ff1916905534801561007b57600080fd5b50600580546001600160a01b031916339081179091556002546000918252600660205260409091205561017d565b8280546100b590610142565b90600052602060002090601f0160209004810192826100d7576000855561011d565b82601f106100f057805160ff191683800117855561011d565b8280016001018555821561011d579182015b8281111561011d578251825591602001919060010190610102565b5061012992915061012d565b5090565b5b80821115610129576000815560010161012e565b600181811c9082168061015657607f821691505b6020821081141561017757634e487b7160e01b600052602260045260246000fd5b50919050565b61076c8061018c6000396000f3fe608060405234801561001057600080fd5b50600436106100a45760003560e01c806306fdde03146100a9578063095ea7b3146100c757806318160ddd146100ea57806323b872dd14610101578063313ce5671461011457806370a08231146101335780638da5cb5b1461015357806395d89b411461017e578063a9059cbb14610186578063a9bdb8a114610199578063dd62ed3e146101b9578063ea24d982146101e4575b600080fd5b6100b16101ec565b6040516100be9190610643565b60405180910390f35b6100da6100d536600461061a565b61027a565b60405190151581526020016100be565b6100f360025481565b6040519081526020016100be565b6100da61010f3660046105df565b6102e6565b6003546101219060ff1681565b60405160ff90911681526020016100be565b6100f361014136600461058c565b60066020526000908152604090205481565b600554610166906001600160a01b031681565b6040516001600160a01b0390911681526020016100be565b6100b1610414565b6100da61019436600461061a565b610421565b6100f36101a736600461058c565b60046020526000908152604090205481565b6100f36101c73660046105ad565b600760209081526000928352604080842090915290825290205481565b6100da6104b9565b600080546101f9906106c5565b80601f0160208091040260200160405190810160405280929190818152602001828054610225906106c5565b80156102725780601f1061024757610100808354040283529160200191610272565b820191906000526020600020905b81548152906001019060200180831161025557829003601f168201915b505050505081565b3360008181526007602090815260408083206001600160a01b038716808552925280832085905551919290917f8c5be1e5ebec7d5bd14f71427d1e84f3dd0314c0f7b2291e5b200ac8c7c3b925906102d59086815260200190565b60405180910390a350600192915050565b6001600160a01b03831660009081526006602052604081205482111561030b57600080fd5b6001600160a01b038416600090815260076020908152604080832033845290915290205482111561033b57600080fd5b6001600160a01b038416600090815260066020526040812080548492906103639084906106ae565b90915550506001600160a01b03831660009081526006602052604081208054849290610390908490610696565b90915550506001600160a01b0384166000908152600760209081526040808320338452909152812080548492906103c89084906106ae565b92505081905550826001600160a01b0316846001600160a01b03166000805160206107178339815191528460405161040291815260200190565b60405180910390a35060019392505050565b600180546101f9906106c5565b3360009081526006602052604081205482111561043d57600080fd5b336000908152600660205260408120805484929061045c9084906106ae565b90915550506001600160a01b03831660009081526006602052604081208054849290610489908490610696565b90915550506040518281526001600160a01b038416903390600080516020610717833981519152906020016102d5565b33600090815260046020526040812054156104d357600080fd5b336000908152600460209081526040808320600190556005546001600160a01b031683526006909152812080546064929061050f9084906106ae565b9091555050336000908152600660205260408120805460649290610534908490610696565b90915550506005546040516064815233916001600160a01b0316906000805160206107178339815191529060200160405180910390a350600190565b80356001600160a01b038116811461058757600080fd5b919050565b60006020828403121561059d578081fd5b6105a682610570565b9392505050565b600080604083850312156105bf578081fd5b6105c883610570565b91506105d660208401610570565b90509250929050565b6000806000606084860312156105f3578081fd5b6105fc84610570565b925061060a60208501610570565b9150604084013590509250925092565b6000806040838503121561062c578182fd5b61063583610570565b946020939093013593505050565b6000602080835283518082850152825b8181101561066f57858101830151858201604001528201610653565b818111156106805783604083870101525b50601f01601f1916929092016040019392505050565b600082198211156106a9576106a9610700565b500190565b6000828210156106c0576106c0610700565b500390565b600181811c908216806106d957607f821691505b602082108114156106fa57634e487b7160e01b600052602260045260246000fd5b50919050565b634e487b7160e01b600052601160045260246000fdfeddf252ad1be2c89b69c2b068fc378daa952ba7f163c4a11628f55a4df523b3efa264697066735822122078b00deaa5db05f2501d5e129a13888a9d20eb84388e1e10bec64c57c489c42564736f6c63430008040033",
  "immutableReferences": {},
  "source": "pragma solidity >=0.4.21;\n\ncontract DaiToken {\n    string  public name = \"Mock DAI Token\";\n    string  public symbol = \"mDAI\";\n    uint256 public totalSupply = 1000000000000; // 1 trillion tokens\n    uint8   public decimals = 0;\n    mapping(address => uint) public claimedAccounts; \n    address public owner;\n    event Transfer(\n        address indexed _from,\n        address indexed _to,\n        uint256 _value\n    );\n\n    event Approval(\n        address indexed _owner,\n        address indexed _spender,\n        uint256 _value\n    );\n\n    mapping(address => uint256) public balanceOf;\n    mapping(address => mapping(address => uint256)) public allowance;\n\n    constructor() public {\n        owner = msg.sender;\n        balanceOf[msg.sender] = totalSupply;\n    }\n\n    function transfer(address _to, uint256 _value) public returns (bool success) {\n        require(balanceOf[msg.sender] >= _value);\n        balanceOf[msg.sender] -= _value;\n        balanceOf[_to] += _value;\n        emit Transfer(msg.sender, _to, _value);\n        return true;\n    }\n\n    function approve(address _spender, uint256 _value) public returns (bool success) {\n        allowance[msg.sender][_spender] = _value;\n        emit Approval(msg.sender, _spender, _value);\n        return true;\n    }\n\n    function transferFrom(address _from, address _to, uint256 _value) public returns (bool success) {\n        require(_value <= balanceOf[_from]);\n        require(_value <= allowance[_from][msg.sender]);\n        balanceOf[_from] -= _value;\n        balanceOf[_to] += _value;\n        allowance[_from][msg.sender] -= _value;\n        emit Transfer(_from, _to, _value);\n        return true;\n    }\n\n    function claimDaiTokens() public returns (bool success) {\n        require(claimedAccounts[msg.sender] == 0);\n        claimedAccounts[msg.sender] = 1;\n        balanceOf[owner] -= 100;\n        balanceOf[msg.sender] += 100;\n        emit Transfer(owner, msg.sender, 100);\n        return true;\n    }\n}\n",
  "sourcePath": "C:\\Users\\trevo\\OneDrive\\Desktop\\Comp Sci\\projects\\fantasystockmarket\\src\\contracts\\DaiToken.sol",
  "compiler": {
    "name": "solc",
    "version": "0.8.4+commit.c7e474f2.Emscripten.clang"
  },
  "schemaVersion": "3.4.1",
  "updatedAt": "2021-05-19T17:26:09.382Z",
  "networkType": "ethereum",
  "devdoc": {
    "kind": "dev",
    "methods": {},
    "version": 1
  },
  "userdoc": {
    "kind": "user",
    "methods": {},
    "version": 1
  }
}