{
  "contractName": "ProxyRegistry",
  "abi": [
    {
      "inputs": [
        {
          "internalType": "address",
          "name": "",
          "type": "address"
        }
      ],
      "name": "proxies",
      "outputs": [
        {
          "internalType": "contract OwnableDelegateProxy",
          "name": "",
          "type": "address"
        }
      ],
      "stateMutability": "view",
      "type": "function"
    }
  ],
  "bytecode": "0x608060405234801561001057600080fd5b5060d18061001f6000396000f3fe6080604052348015600f57600080fd5b506004361060285760003560e01c8063c455279114602d575b600080fd5b60536038366004606f565b6000602081905290815260409020546001600160a01b031681565b6040516001600160a01b03909116815260200160405180910390f35b600060208284031215607f578081fd5b81356001600160a01b03811681146094578182fd5b939250505056fea2646970667358221220d9e47bed2b4e110a0a5356f5f4a95c5aa521dd8e2f7d67d7f1839532b1a0e71464736f6c63430008040033",
  "immutableReferences": {},
  "source": "// SPDX-License-Identifier: MIT\n\npragma solidity ^0.8.0;\n\nimport \"openzeppelin-solidity/contracts/token/ERC721/ERC721.sol\";\nimport \"openzeppelin-solidity/contracts/token/ERC721/extensions/ERC721Enumerable.sol\";\nimport \"openzeppelin-solidity/contracts/access/Ownable.sol\";\nimport \"openzeppelin-solidity/contracts/utils/math/SafeMath.sol\";\nimport \"openzeppelin-solidity/contracts/utils/Strings.sol\";\n\nimport \"./common/meta-transactions/ContentMixin.sol\";\nimport \"./common/meta-transactions/NativeMetaTransaction.sol\";\n\ncontract OwnableDelegateProxy {}\n\ncontract ProxyRegistry {\n    mapping(address => OwnableDelegateProxy) public proxies;\n}\n\n/**\n * @title ERC721Tradable\n * ERC721Tradable - ERC721 contract that whitelists a trading address, and has minting functionality.\n */\nabstract contract ERC721Tradable is ContextMixin, ERC721Enumerable, NativeMetaTransaction, Ownable {\n    using SafeMath for uint256;\n\n    address proxyRegistryAddress;\n    uint256 private _currentTokenId = 0;\n\n    constructor(\n        string memory _name,\n        string memory _symbol,\n        address _proxyRegistryAddress\n    ) ERC721(_name, _symbol) {\n        proxyRegistryAddress = _proxyRegistryAddress;\n        _initializeEIP712(_name);\n    }\n\n    /**\n     * @dev Mints a token to an address with a tokenURI.\n     * @param _to address of the future owner of the token\n     */\n    function mintTo(address _to) public onlyOwner {\n        uint256 newTokenId = _getNextTokenId();\n        _mint(_to, newTokenId);\n        _incrementTokenId();\n    }\n\n    /**\n     * @dev calculates the next token ID based on value of _currentTokenId\n     * @return uint256 for the next token ID\n     */\n    function _getNextTokenId() private view returns (uint256) {\n        return _currentTokenId.add(1);\n    }\n\n    /**\n     * @dev increments the value of _currentTokenId\n     */\n    function _incrementTokenId() private {\n        _currentTokenId++;\n    }\n\n    function baseTokenURI() virtual public pure returns (string memory);\n\n    function tokenURI(uint256 _tokenId) override public pure returns (string memory) {\n        return string(abi.encodePacked(baseTokenURI(), Strings.toString(_tokenId)));\n    }\n\n    /**\n     * Override isApprovedForAll to whitelist user's OpenSea proxy accounts to enable gas-less listings.\n     */\n    function isApprovedForAll(address owner, address operator)\n        override\n        public\n        view\n        returns (bool)\n    {\n        // Whitelist OpenSea proxy contract for easy trading.\n        ProxyRegistry proxyRegistry = ProxyRegistry(proxyRegistryAddress);\n        if (address(proxyRegistry.proxies(owner)) == operator) {\n            return true;\n        }\n\n        return super.isApprovedForAll(owner, operator);\n    }\n\n    /**\n     * This is used instead of msg.sender as transactions won't be sent by the original token owner, but by OpenSea.\n     */\n    function _msgSender()\n        internal\n        override\n        view\n        returns (address sender)\n    {\n        return ContextMixin.msgSender();\n    }\n}\n",
  "sourcePath": "C:\\Users\\trevo\\OneDrive\\Desktop\\Comp Sci\\projects\\fantasystockmarket\\src\\contracts\\ERC721Tradable.sol",
  "compiler": {
    "name": "solc",
    "version": "0.8.4+commit.c7e474f2.Emscripten.clang"
  },
  "schemaVersion": "3.4.1",
  "updatedAt": "2021-05-19T17:23:41.480Z",
  "devdoc": {
    "kind": "dev",
    "methods": {},
    "version": 1
  },
  "userdoc": {
    "kind": "user",
    "methods": {},
    "version": 1
  }
}