{
  "contractName": "TokenFarm",
  "abi": [
    {
      "inputs": [
        {
          "internalType": "contract DappToken",
          "name": "_dappToken",
          "type": "address"
        },
        {
          "internalType": "contract DaiToken",
          "name": "_daiToken",
          "type": "address"
        }
      ],
      "stateMutability": "nonpayable",
      "type": "constructor"
    },
    {
      "anonymous": false,
      "inputs": [
        {
          "indexed": true,
          "internalType": "address",
          "name": "previousOwner",
          "type": "address"
        },
        {
          "indexed": true,
          "internalType": "address",
          "name": "newOwner",
          "type": "address"
        }
      ],
      "name": "OwnershipTransferred",
      "type": "event"
    },
    {
      "inputs": [],
      "name": "daiToken",
      "outputs": [
        {
          "internalType": "contract DaiToken",
          "name": "",
          "type": "address"
        }
      ],
      "stateMutability": "view",
      "type": "function",
      "constant": true
    },
    {
      "inputs": [],
      "name": "dappToken",
      "outputs": [
        {
          "internalType": "contract DappToken",
          "name": "",
          "type": "address"
        }
      ],
      "stateMutability": "view",
      "type": "function",
      "constant": true
    },
    {
      "inputs": [
        {
          "internalType": "address",
          "name": "",
          "type": "address"
        }
      ],
      "name": "hasStaked",
      "outputs": [
        {
          "internalType": "bool",
          "name": "",
          "type": "bool"
        }
      ],
      "stateMutability": "view",
      "type": "function",
      "constant": true
    },
    {
      "inputs": [],
      "name": "name",
      "outputs": [
        {
          "internalType": "string",
          "name": "",
          "type": "string"
        }
      ],
      "stateMutability": "view",
      "type": "function",
      "constant": true
    },
    {
      "inputs": [
        {
          "internalType": "address",
          "name": "",
          "type": "address"
        }
      ],
      "name": "numStakes",
      "outputs": [
        {
          "internalType": "uint256",
          "name": "",
          "type": "uint256"
        }
      ],
      "stateMutability": "view",
      "type": "function",
      "constant": true
    },
    {
      "inputs": [],
      "name": "owner",
      "outputs": [
        {
          "internalType": "address",
          "name": "",
          "type": "address"
        }
      ],
      "stateMutability": "view",
      "type": "function",
      "constant": true
    },
    {
      "inputs": [],
      "name": "renounceOwnership",
      "outputs": [],
      "stateMutability": "nonpayable",
      "type": "function"
    },
    {
      "inputs": [
        {
          "internalType": "address",
          "name": "",
          "type": "address"
        },
        {
          "internalType": "uint256",
          "name": "",
          "type": "uint256"
        }
      ],
      "name": "stakeNames",
      "outputs": [
        {
          "internalType": "string",
          "name": "",
          "type": "string"
        }
      ],
      "stateMutability": "view",
      "type": "function",
      "constant": true
    },
    {
      "inputs": [
        {
          "internalType": "uint256",
          "name": "",
          "type": "uint256"
        }
      ],
      "name": "stakers",
      "outputs": [
        {
          "internalType": "address",
          "name": "",
          "type": "address"
        }
      ],
      "stateMutability": "view",
      "type": "function",
      "constant": true
    },
    {
      "inputs": [
        {
          "internalType": "address",
          "name": "",
          "type": "address"
        },
        {
          "internalType": "string",
          "name": "",
          "type": "string"
        }
      ],
      "name": "stakes",
      "outputs": [
        {
          "internalType": "uint256",
          "name": "",
          "type": "uint256"
        }
      ],
      "stateMutability": "view",
      "type": "function",
      "constant": true
    },
    {
      "inputs": [
        {
          "internalType": "address",
          "name": "",
          "type": "address"
        }
      ],
      "name": "stakingBalance",
      "outputs": [
        {
          "internalType": "uint256",
          "name": "",
          "type": "uint256"
        }
      ],
      "stateMutability": "view",
      "type": "function",
      "constant": true
    },
    {
      "inputs": [],
      "name": "stockCount",
      "outputs": [
        {
          "internalType": "uint256",
          "name": "",
          "type": "uint256"
        }
      ],
      "stateMutability": "view",
      "type": "function",
      "constant": true
    },
    {
      "inputs": [
        {
          "internalType": "string",
          "name": "",
          "type": "string"
        }
      ],
      "name": "stockNames",
      "outputs": [
        {
          "internalType": "uint256",
          "name": "",
          "type": "uint256"
        }
      ],
      "stateMutability": "view",
      "type": "function",
      "constant": true
    },
    {
      "inputs": [
        {
          "internalType": "uint256",
          "name": "",
          "type": "uint256"
        }
      ],
      "name": "stocks",
      "outputs": [
        {
          "internalType": "string",
          "name": "stockName",
          "type": "string"
        },
        {
          "internalType": "string",
          "name": "imageUrl",
          "type": "string"
        },
        {
          "internalType": "uint256",
          "name": "seed",
          "type": "uint256"
        },
        {
          "internalType": "string",
          "name": "bio",
          "type": "string"
        },
        {
          "internalType": "uint256",
          "name": "currPoints",
          "type": "uint256"
        },
        {
          "internalType": "string",
          "name": "dividends",
          "type": "string"
        },
        {
          "internalType": "uint256",
          "name": "float",
          "type": "uint256"
        },
        {
          "internalType": "string",
          "name": "market",
          "type": "string"
        }
      ],
      "stateMutability": "view",
      "type": "function",
      "constant": true
    },
    {
      "inputs": [],
      "name": "testBool",
      "outputs": [
        {
          "internalType": "bool",
          "name": "",
          "type": "bool"
        }
      ],
      "stateMutability": "view",
      "type": "function",
      "constant": true
    },
    {
      "inputs": [
        {
          "internalType": "address",
          "name": "newOwner",
          "type": "address"
        }
      ],
      "name": "transferOwnership",
      "outputs": [],
      "stateMutability": "nonpayable",
      "type": "function"
    },
    {
      "inputs": [
        {
          "internalType": "string",
          "name": "stockName",
          "type": "string"
        },
        {
          "internalType": "string",
          "name": "imageUrl",
          "type": "string"
        },
        {
          "internalType": "uint256",
          "name": "seed",
          "type": "uint256"
        },
        {
          "internalType": "string",
          "name": "bio",
          "type": "string"
        },
        {
          "internalType": "uint256",
          "name": "currPoints",
          "type": "uint256"
        },
        {
          "internalType": "string",
          "name": "dividends",
          "type": "string"
        },
        {
          "internalType": "uint256",
          "name": "float",
          "type": "uint256"
        },
        {
          "internalType": "string",
          "name": "market",
          "type": "string"
        }
      ],
      "name": "createStock",
      "outputs": [
        {
          "internalType": "uint256",
          "name": "",
          "type": "uint256"
        }
      ],
      "stateMutability": "nonpayable",
      "type": "function"
    },
    {
      "inputs": [
        {
          "internalType": "uint256",
          "name": "_amount",
          "type": "uint256"
        },
        {
          "internalType": "string",
          "name": "stockName",
          "type": "string"
        }
      ],
      "name": "stakeTokens",
      "outputs": [],
      "stateMutability": "nonpayable",
      "type": "function"
    },
    {
      "inputs": [
        {
          "internalType": "uint256",
          "name": "_amount",
          "type": "uint256"
        },
        {
          "internalType": "string",
          "name": "stockName",
          "type": "string"
        }
      ],
      "name": "unstakeTokens",
      "outputs": [],
      "stateMutability": "nonpayable",
      "type": "function"
    },
    {
      "inputs": [],
      "name": "issueTokens",
      "outputs": [],
      "stateMutability": "nonpayable",
      "type": "function"
    }
  ],
  "bytecode": "0x60c0604052600a608081905269546f6b656e204661726d60b01b60a09081526200002d9160019190620000db565b50600d805460ff191690553480156200004557600080fd5b5060405162001b5638038062001b56833981016040819052620000689162000181565b600080546001600160a01b031916339081178255604051909182917f8be0079c531659141344cd1fd0a4f28419497f9722a3daafe3b4186f6b6457e0908290a350600380546001600160a01b039384166001600160a01b0319918216179091556002805492909316911617905562000215565b828054620000e990620001bf565b90600052602060002090601f0160209004810192826200010d576000855562000158565b82601f106200012857805160ff191683800117855562000158565b8280016001018555821562000158579182015b82811115620001585782518255916020019190600101906200013b565b50620001669291506200016a565b5090565b5b808211156200016657600081556001016200016b565b6000806040838503121562000194578182fd5b8251620001a181620001fc565b6020840151909250620001b481620001fc565b809150509250929050565b600181811c90821680620001d457607f821691505b60208210811415620001f657634e487b7160e01b600052602260045260246000fd5b50919050565b6001600160a01b03811681146200021257600080fd5b50565b61193180620002256000396000f3fe608060405234801561001057600080fd5b50600436106100fc5760003560e01c806306fdde03146101015780630d9a94111461011f5780630f9390a914610134578063226b876c1461016d5780633467e9e11461019457806336aacafa146101b457806345bc78ab146101d15780635dd559d6146101f15780635eb186f81461020457806360ab58521461022f578063715018a6146102375780638508da5c1461023f5780638da5cb5b14610248578063be22f54614610250578063c10878f814610263578063c865317114610276578063c93c8f34146102b2578063f2fde38b146102d5578063fd5e6dd1146102e8578063ff33e294146102fb575b600080fd5b61010961030e565b6040516101169190611701565b60405180910390f35b61013261012d3660046115d7565b61039c565b005b61015f61014236600461149d565b805160208183018101805160068252928201919093012091525481565b604051908152602001610116565b61018061017b3660046115bf565b61067e565b604051610116989796959493929190611714565b61015f6101a23660046113e8565b60086020526000908152604090205481565b600d546101c19060ff1681565b6040519015158152602001610116565b61015f6101df3660046113e8565b600b6020526000908152604090205481565b6101096101ff366004611454565b61097e565b600354610217906001600160a01b031681565b6040516001600160a01b039091168152602001610116565b6101326109b6565b610132610ae1565b61015f60055481565b610217610b5a565b600254610217906001600160a01b031681565b61015f6102713660046114d7565b610b69565b61015f610284366004611409565b6009602090815260009283526040909220815180830184018051928152908401929093019190912091525481565b6101c16102c03660046113e8565b600c6020526000908152604090205460ff1681565b6101326102e33660046113e8565b610d09565b6102176102f63660046115bf565b610df8565b6101326103093660046115d7565b610e22565b6001805461031b90611879565b80601f016020809104026020016040519081016040528092919081815260200182805461034790611879565b80156103945780601f1061036957610100808354040283529160200191610394565b820191906000526020600020905b81548152906001019060200180831161037757829003601f168201915b505050505081565b600082116103e65760405162461bcd60e51b81526020600482015260126024820152710616d6f756e742063616e6e6f7420626520360741b60448201526064015b60405180910390fd5b6006816040516103f69190611631565b9081526020016040518091039020546000141561041257600080fd5b336000908152600b602052604090205461042d908390611803565b336000908152600b6020908152604080832093909355600c9052205460ff1661049357600a80546001810182556000919091527fc65a7bb8d6351c1cf70c95a316cc6a92839c986682d98bc35f958f4883f9d2a80180546001600160a01b031916331790555b336000908152600c60209081526040808320805460ff1916600117905560099091529081902090516104c6908390611631565b908152602001604051809103902054600014156105ac573360009081526008602090815260408083205460079092529091205481141561053957336000908152600760209081526040822080546001810182559083529181902084516105339391909101918501906111fc565b5061058a565b33600090815260076020526040902080548391908390811061056b57634e487b7160e01b600052603260045260246000fd5b9060005260206000200190805190602001906105889291906111fc565b505b3360009081526008602052604081208054916105a5836118b4565b9190505550505b336000908152600960205260409081902090518391906105cd908490611631565b908152602001604051809103902060008282546105ea9190611803565b90915550506002546040516323b872dd60e01b8152336004820152306024820152604481018490526001600160a01b03909116906323b872dd90606401602060405180830381600087803b15801561064157600080fd5b505af1158015610655573d6000803e3d6000fd5b505050506040513d601f19601f82011682018060405250810190610679919061147d565b505050565b6004818154811061068e57600080fd5b90600052602060002090600802016000915090508060000180546106b190611879565b80601f01602080910402602001604051908101604052809291908181526020018280546106dd90611879565b801561072a5780601f106106ff5761010080835404028352916020019161072a565b820191906000526020600020905b81548152906001019060200180831161070d57829003601f168201915b50505050509080600101805461073f90611879565b80601f016020809104026020016040519081016040528092919081815260200182805461076b90611879565b80156107b85780601f1061078d576101008083540402835291602001916107b8565b820191906000526020600020905b81548152906001019060200180831161079b57829003601f168201915b5050505050908060020154908060030180546107d390611879565b80601f01602080910402602001604051908101604052809291908181526020018280546107ff90611879565b801561084c5780601f106108215761010080835404028352916020019161084c565b820191906000526020600020905b81548152906001019060200180831161082f57829003601f168201915b50505050509080600401549080600501805461086790611879565b80601f016020809104026020016040519081016040528092919081815260200182805461089390611879565b80156108e05780601f106108b5576101008083540402835291602001916108e0565b820191906000526020600020905b8154815290600101906020018083116108c357829003601f168201915b5050505050908060060154908060070180546108fb90611879565b80601f016020809104026020016040519081016040528092919081815260200182805461092790611879565b80156109745780601f1061094957610100808354040283529160200191610974565b820191906000526020600020905b81548152906001019060200180831161095757829003601f168201915b5050505050905088565b6007602052816000526040600020818154811061099a57600080fd5b9060005260206000200160009150915050805461031b90611879565b336109bf610b5a565b6001600160a01b0316146109e55760405162461bcd60e51b81526004016103dd906117ce565b60005b600a54811015610ade576000600a8281548110610a1557634e487b7160e01b600052603260045260246000fd5b60009182526020808320909101546001600160a01b0316808352600b9091526040909120549091508015610ac95760035460405163a9059cbb60e01b81526001600160a01b039091169063a9059cbb90610a7590859085906004016116e8565b602060405180830381600087803b158015610a8f57600080fd5b505af1158015610aa3573d6000803e3d6000fd5b505050506040513d601f19601f82011682018060405250810190610ac7919061147d565b505b50508080610ad6906118b4565b9150506109e8565b50565b33610aea610b5a565b6001600160a01b031614610b105760405162461bcd60e51b81526004016103dd906117ce565b600080546040516001600160a01b03909116907f8be0079c531659141344cd1fd0a4f28419497f9722a3daafe3b4186f6b6457e0908390a3600080546001600160a01b0319169055565b6000546001600160a01b031690565b600033610b74610b5a565b6001600160a01b031614610b9a5760405162461bcd60e51b81526004016103dd906117ce565b60408051610100810182528a815260208082018b9052918101899052606081018890526080810187905260a0810186905260c0810185905260e081018490526004805460018101825560009190915281518051929360089092027f8a35acfbc15ff81a39ae7d344fd709f28e8600b4aa8c65c6b64bfe7fe36bd19b0192610c2492849201906111fc565b506020828101518051610c3d92600185019201906111fc565b506040820151600282015560608201518051610c639160038401916020909101906111fc565b506080820151600482015560a08201518051610c899160058401916020909101906111fc565b5060c0820151600682015560e08201518051610caf9160078401916020909101906111fc565b505050600689604051610cc29190611631565b9081526040519081900360200190208054906000610cdf836118b4565b909155505060058054906000610cf4836118b4565b90915550506005549998505050505050505050565b33610d12610b5a565b6001600160a01b031614610d385760405162461bcd60e51b81526004016103dd906117ce565b6001600160a01b038116610d9d5760405162461bcd60e51b815260206004820152602660248201527f4f776e61626c653a206e6577206f776e657220697320746865207a65726f206160448201526564647265737360d01b60648201526084016103dd565b600080546040516001600160a01b03808516939216917f8be0079c531659141344cd1fd0a4f28419497f9722a3daafe3b4186f6b6457e091a3600080546001600160a01b0319166001600160a01b0392909216919091179055565b600a8181548110610e0857600080fd5b6000918252602090912001546001600160a01b0316905081565b336000908152600b602090815260408083205460099092528083209051919291610e4d908590611631565b908152602001604051809103902054905060008211610e7e5760405162461bcd60e51b81526004016103dd90611799565b60008111610e9e5760405162461bcd60e51b81526004016103dd90611799565b80841115610eec5760405162461bcd60e51b815260206004820152601b60248201527a616d6f756e74206973206d6f7265207468616e2062616c616e636560281b60448201526064016103dd565b336000908152600b602052604081208054869290610f0b90849061181b565b909155505033600090815260096020526040908190209051859190610f31908690611631565b90815260200160405180910390206000828254610f4e919061181b565b909155505033600090815260096020526040908190209051610f71908590611631565b908152602001604051809103902054600014156111715733600090815260086020526040812054905b8181101561116e57336000908152600760205260409020805482908110610fd157634e487b7160e01b600052603260045260246000fd5b90600052602060002001604051602001610feb919061164d565b60405160208183030381529060405280519060200120856040516020016110129190611631565b60405160208183030381529060405280519060200120141561115c57600d805460ff1916600190811790915533600090815260076020526040902090611058908461181b565b8154811061107657634e487b7160e01b600052603260045260246000fd5b9060005260206000200160076000336001600160a01b03166001600160a01b0316815260200190815260200160002082815481106110c457634e487b7160e01b600052603260045260246000fd5b906000526020600020019080546110da90611879565b6110e5929190611280565b5033600090815260076020526040902061110060018461181b565b8154811061111e57634e487b7160e01b600052603260045260246000fd5b90600052602060002001600061113491906112fb565b33600090815260086020526040812080549161114f83611862565b919050555081905061116e565b80611166816118b4565b915050610f9a565b50505b60025460405163a9059cbb60e01b81526001600160a01b039091169063a9059cbb906111a390339088906004016116e8565b602060405180830381600087803b1580156111bd57600080fd5b505af11580156111d1573d6000803e3d6000fd5b505050506040513d601f19601f820116820180604052508101906111f5919061147d565b5050505050565b82805461120890611879565b90600052602060002090601f01602090048101928261122a5760008555611270565b82601f1061124357805160ff1916838001178555611270565b82800160010185558215611270579182015b82811115611270578251825591602001919060010190611255565b5061127c929150611331565b5090565b82805461128c90611879565b90600052602060002090601f0160209004810192826112ae5760008555611270565b82601f106112bf5780548555611270565b8280016001018555821561127057600052602060002091601f016020900482015b828111156112705782548255916001019190600101906112e0565b50805461130790611879565b6000825580601f10611317575050565b601f016020900490600052602060002090810190610ade91905b5b8082111561127c5760008155600101611332565b80356001600160a01b038116811461135d57600080fd5b919050565b600082601f830112611372578081fd5b81356001600160401b038082111561138c5761138c6118e5565b604051601f8301601f19908116603f011681019082821181831017156113b4576113b46118e5565b816040528381528660208588010111156113cc578485fd5b8360208701602083013792830160200193909352509392505050565b6000602082840312156113f9578081fd5b61140282611346565b9392505050565b6000806040838503121561141b578081fd5b61142483611346565b915060208301356001600160401b0381111561143e578182fd5b61144a85828601611362565b9150509250929050565b60008060408385031215611466578182fd5b61146f83611346565b946020939093013593505050565b60006020828403121561148e578081fd5b81518015158114611402578182fd5b6000602082840312156114ae578081fd5b81356001600160401b038111156114c3578182fd5b6114cf84828501611362565b949350505050565b600080600080600080600080610100898b0312156114f3578384fd5b88356001600160401b0380821115611509578586fd5b6115158c838d01611362565b995060208b013591508082111561152a578586fd5b6115368c838d01611362565b985060408b0135975060608b0135915080821115611552578586fd5b61155e8c838d01611362565b965060808b0135955060a08b013591508082111561157a578485fd5b6115868c838d01611362565b945060c08b0135935060e08b01359150808211156115a2578283fd5b506115af8b828c01611362565b9150509295985092959890939650565b6000602082840312156115d0578081fd5b5035919050565b600080604083850312156115e9578182fd5b8235915060208301356001600160401b0381111561143e578182fd5b6000815180845261161d816020860160208601611832565b601f01601f19169290920160200192915050565b60008251611643818460208701611832565b9190910192915050565b600080835482600182811c91508083168061166957607f831692505b602080841082141561168957634e487b7160e01b87526022600452602487fd5b81801561169d57600181146116ae576116da565b60ff198616895284890196506116da565b60008a815260209020885b868110156116d25781548b8201529085019083016116b9565b505084890196505b509498975050505050505050565b6001600160a01b03929092168252602082015260400190565b6020815260006114026020830184611605565b60006101008083526117288184018c611605565b9050828103602084015261173c818b611605565b905088604084015282810360608401526117568189611605565b905086608084015282810360a08401526117708187611605565b90508460c084015282810360e084015261178a8185611605565b9b9a5050505050505050505050565b6020808252601b908201527a07374616b696e672062616c616e63652063616e6e6f74206265203602c1b604082015260600190565b6020808252818101527f4f776e61626c653a2063616c6c6572206973206e6f7420746865206f776e6572604082015260600190565b60008219821115611816576118166118cf565b500190565b60008282101561182d5761182d6118cf565b500390565b60005b8381101561184d578181015183820152602001611835565b8381111561185c576000848401525b50505050565b600081611871576118716118cf565b506000190190565b600181811c9082168061188d57607f821691505b602082108114156118ae57634e487b7160e01b600052602260045260246000fd5b50919050565b60006000198214156118c8576118c86118cf565b5060010190565b634e487b7160e01b600052601160045260246000fd5b634e487b7160e01b600052604160045260246000fdfea2646970667358221220199ff5e16ea550eb90dc8be592a8de9e02691ded3f71e25fda9e961b29f2a7e664736f6c63430008040033",
  "immutableReferences": {},
  "source": "pragma solidity >=0.4.21;\n\nimport \"@openzeppelin/contracts/access/Ownable.sol\";\nimport \"./DappToken.sol\";\nimport \"./DaiToken.sol\";\n\ncontract TokenFarm is Ownable {\n    string public name = \"Token Farm\";\n    DaiToken public daiToken;\n    DappToken public dappToken;\n    \n    struct Stock {\n        string stockName;\n        string imageUrl;\n        uint seed;\n        string bio;\n        uint currPoints;\n        string dividends;\n        uint float;\n        string market;\n    }\n\n    Stock[] public stocks;\n    uint public stockCount;\n    mapping(string => uint) public stockNames;\n\n    mapping(address => string[]) public stakeNames;\n    mapping(address => uint) public numStakes;\n    mapping(address => mapping(string => uint)) public stakes;\n\n    address[] public stakers;\n    mapping(address => uint) public stakingBalance;\n    mapping(address => bool) public hasStaked;\n\n    bool public testBool = false;\n\n    constructor(DappToken _dappToken, DaiToken _daiToken) public {\n        dappToken = _dappToken;\n        daiToken = _daiToken;\n    }\n\n    function createStock(\n        string memory stockName,\n        string memory imageUrl,\n        uint seed,\n        string memory bio,\n        uint currPoints,\n        string memory dividends,\n        uint float,\n        string memory market\n        ) \n        public \n        onlyOwner\n        returns (uint)\n        {\n        stocks.push(Stock(stockName, imageUrl, seed, bio, currPoints, dividends, float, market));\n        stockNames[stockName]++;\n        stockCount++;\n        return stockCount;\n    }\n\n    function stakeTokens(uint _amount, string memory stockName) public {\n        require(_amount > 0, \"amount cannot be 0\");\n        require(stockNames[stockName] != 0);\n\n        \n        stakingBalance[msg.sender] = stakingBalance[msg.sender] + _amount;\n        if(!hasStaked[msg.sender]) {\n            stakers.push(msg.sender);\n        }\n        hasStaked[msg.sender] = true;\n\n        if (stakes[msg.sender][stockName] == 0) {\n            uint x = numStakes[msg.sender];\n            if (x == (stakeNames[msg.sender]).length) {\n                stakeNames[msg.sender].push(stockName);\n            }\n            else {\n                stakeNames[msg.sender][x] = stockName;\n            }\n            numStakes[msg.sender]++;\n        }\n        stakes[msg.sender][stockName] += _amount;\n\n        daiToken.transferFrom(msg.sender, address(this), _amount);\n    }\n\n    // Unstaking Tokens (Withdraw)\n    function unstakeTokens(uint _amount, string memory stockName) public {\n        // Fetch staking balance\n        uint balance = stakingBalance[msg.sender];\n        uint stockBalance = stakes[msg.sender][stockName];\n        require(balance > 0, \"staking balance cannot be 0\");\n        require(stockBalance > 0, \"staking balance cannot be 0\");\n        require(_amount <= stockBalance, \"amount is more than balance\");\n        \n        stakingBalance[msg.sender] -= _amount;\n        stakes[msg.sender][stockName] -= _amount;\n        \n        if (stakes[msg.sender][stockName] == 0) {\n            uint stakeNum = numStakes[msg.sender];\n            for (uint i = 0; i < stakeNum; i++) {\n                if (keccak256(abi.encodePacked(stockName)) == keccak256(abi.encodePacked(stakeNames[msg.sender][i]))) {\n                    testBool = true;\n                    stakeNames[msg.sender][i] = stakeNames[msg.sender][stakeNum - 1];\n                    delete stakeNames[msg.sender][stakeNum - 1];\n                    numStakes[msg.sender]--;\n                    i = stakeNum;\n                    break;\n                }\n            }\n        }\n        daiToken.transfer(msg.sender, _amount);\n    }\n\n    // Issuing Tokens\n    function issueTokens() public onlyOwner {\n        // Issue tokens to all stakers\n        for (uint i=0; i<stakers.length; i++) {\n            address recipient = stakers[i];\n            uint balance = stakingBalance[recipient];\n            if(balance > 0) {\n                dappToken.transfer(recipient, balance);\n            }\n        }\n    }\n}\n",
  "sourcePath": "C:/Users/trevo/OneDrive/Desktop/Comp Sci/projects/fantasystockmarket/src/contracts/TokenFarm.sol",
  "compiler": {
    "name": "solc",
    "version": "0.8.4+commit.c7e474f2.Emscripten.clang"
  },
  "schemaVersion": "3.4.1",
  "updatedAt": "2021-05-19T17:26:09.398Z",
  "networkType": "ethereum",
  "devdoc": {
    "kind": "dev",
    "methods": {
      "owner()": {
        "details": "Returns the address of the current owner."
      },
      "renounceOwnership()": {
        "details": "Leaves the contract without owner. It will not be possible to call `onlyOwner` functions anymore. Can only be called by the current owner. NOTE: Renouncing ownership will leave the contract without an owner, thereby removing any functionality that is only available to the owner."
      },
      "transferOwnership(address)": {
        "details": "Transfers ownership of the contract to a new account (`newOwner`). Can only be called by the current owner."
      }
    },
    "version": 1
  },
  "userdoc": {
    "kind": "user",
    "methods": {},
    "version": 1
  }
}